{
  "address": "0xe1440DFc7786cb49A38E4db6D5BBF3f5d3d4A85E",
  "abi": [
    {
      "inputs": [
        {
          "internalType": "address",
          "name": "_cryptoDevsAddress",
          "type": "address"
        },
        {
          "internalType": "address",
          "name": "_fakeNftMarketaddress",
          "type": "address"
        }
      ],
      "stateMutability": "nonpayable",
      "type": "constructor"
    },
    {
      "inputs": [],
      "name": "DAO_ALREADY_EXCECUTED",
      "type": "error"
    },
    {
      "inputs": [],
      "name": "DAO_NOT_ENOUGH_ETH",
      "type": "error"
    },
    {
      "inputs": [],
      "name": "DAO_PropoalAlreadyRunning",
      "type": "error"
    },
    {
      "inputs": [],
      "name": "DAO__ALREADY_VOTED",
      "type": "error"
    },
    {
      "inputs": [],
      "name": "DAO__NOT_DAO_MEMBER",
      "type": "error"
    },
    {
      "inputs": [],
      "name": "DAO__TOKEN_NOT_AVAILABLE",
      "type": "error"
    },
    {
      "inputs": [
        {
          "internalType": "address",
          "name": "owner",
          "type": "address"
        }
      ],
      "name": "OwnableInvalidOwner",
      "type": "error"
    },
    {
      "inputs": [
        {
          "internalType": "address",
          "name": "account",
          "type": "address"
        }
      ],
      "name": "OwnableUnauthorizedAccount",
      "type": "error"
    },
    {
      "anonymous": false,
      "inputs": [
        {
          "indexed": true,
          "internalType": "address",
          "name": "previousOwner",
          "type": "address"
        },
        {
          "indexed": true,
          "internalType": "address",
          "name": "newOwner",
          "type": "address"
        }
      ],
      "name": "OwnershipTransferred",
      "type": "event"
    },
    {
      "anonymous": false,
      "inputs": [
        {
          "indexed": true,
          "internalType": "uint256",
          "name": "proposalID",
          "type": "uint256"
        }
      ],
      "name": "ProposalCreated",
      "type": "event"
    },
    {
      "anonymous": false,
      "inputs": [
        {
          "indexed": true,
          "internalType": "uint256",
          "name": "proposalID",
          "type": "uint256"
        },
        {
          "indexed": true,
          "internalType": "bool",
          "name": "result",
          "type": "bool"
        }
      ],
      "name": "ProposalEnded",
      "type": "event"
    },
    {
      "anonymous": false,
      "inputs": [
        {
          "indexed": true,
          "internalType": "uint256",
          "name": "proposalID",
          "type": "uint256"
        },
        {
          "indexed": true,
          "internalType": "address",
          "name": "voter",
          "type": "address"
        },
        {
          "indexed": true,
          "internalType": "enum DAO.Vote",
          "name": "vote",
          "type": "uint8"
        }
      ],
      "name": "VoteSubmitted",
      "type": "event"
    },
    {
      "stateMutability": "payable",
      "type": "fallback"
    },
    {
      "inputs": [
        {
          "internalType": "bytes",
          "name": "",
          "type": "bytes"
        }
      ],
      "name": "checkUpkeep",
      "outputs": [
        {
          "internalType": "bool",
          "name": "upkeepNeeded",
          "type": "bool"
        },
        {
          "internalType": "bytes",
          "name": "",
          "type": "bytes"
        }
      ],
      "stateMutability": "view",
      "type": "function"
    },
    {
      "inputs": [
        {
          "internalType": "uint256",
          "name": "_nftTokenId",
          "type": "uint256"
        },
        {
          "internalType": "uint256",
          "name": "_deadline",
          "type": "uint256"
        }
      ],
      "name": "createProposal",
      "outputs": [
        {
          "internalType": "uint256",
          "name": "",
          "type": "uint256"
        }
      ],
      "stateMutability": "nonpayable",
      "type": "function"
    },
    {
      "inputs": [
        {
          "internalType": "uint256",
          "name": "_idx",
          "type": "uint256"
        }
      ],
      "name": "executeProposal",
      "outputs": [],
      "stateMutability": "nonpayable",
      "type": "function"
    },
    {
      "inputs": [],
      "name": "numProposals",
      "outputs": [
        {
          "internalType": "uint256",
          "name": "",
          "type": "uint256"
        }
      ],
      "stateMutability": "view",
      "type": "function"
    },
    {
      "inputs": [],
      "name": "owner",
      "outputs": [
        {
          "internalType": "address",
          "name": "",
          "type": "address"
        }
      ],
      "stateMutability": "view",
      "type": "function"
    },
    {
      "inputs": [
        {
          "internalType": "bytes",
          "name": "",
          "type": "bytes"
        }
      ],
      "name": "performUpkeep",
      "outputs": [],
      "stateMutability": "nonpayable",
      "type": "function"
    },
    {
      "inputs": [],
      "name": "proposalRunning",
      "outputs": [
        {
          "internalType": "bool",
          "name": "",
          "type": "bool"
        }
      ],
      "stateMutability": "view",
      "type": "function"
    },
    {
      "inputs": [
        {
          "internalType": "uint256",
          "name": "",
          "type": "uint256"
        }
      ],
      "name": "proposals",
      "outputs": [
        {
          "internalType": "uint256",
          "name": "nftTokenId",
          "type": "uint256"
        },
        {
          "internalType": "uint256",
          "name": "deadline",
          "type": "uint256"
        },
        {
          "internalType": "uint256",
          "name": "yayVotes",
          "type": "uint256"
        },
        {
          "internalType": "uint256",
          "name": "nayVotes",
          "type": "uint256"
        },
        {
          "internalType": "bool",
          "name": "executed",
          "type": "bool"
        }
      ],
      "stateMutability": "view",
      "type": "function"
    },
    {
      "inputs": [],
      "name": "renounceOwnership",
      "outputs": [],
      "stateMutability": "nonpayable",
      "type": "function"
    },
    {
      "inputs": [
        {
          "internalType": "address",
          "name": "newOwner",
          "type": "address"
        }
      ],
      "name": "transferOwnership",
      "outputs": [],
      "stateMutability": "nonpayable",
      "type": "function"
    },
    {
      "inputs": [
        {
          "internalType": "uint256",
          "name": "_idx",
          "type": "uint256"
        },
        {
          "internalType": "enum DAO.Vote",
          "name": "vote",
          "type": "uint8"
        }
      ],
      "name": "voteOnProposal",
      "outputs": [],
      "stateMutability": "nonpayable",
      "type": "function"
    },
    {
      "stateMutability": "payable",
      "type": "receive"
    }
  ],
  "transactionHash": "0xecde734eb6d0cad095720665537c4f5f8a4b9f33ccad6ec1491106de8a4ee0aa",
  "args": [
    "0x2b7d17aa0B5B0A731453931Be2FBD6fF9f0ea456",
    "0xAF75507b14dc3645301259E9c81B03a4074207DE"
  ],
  "numDeployments": 9,
  "solcInputHash": "6161ed9a09b428662084a9101e33effc",
  "bytecode": "0x608060405234801561001057600080fd5b5060405161175b38038061175b83398181016040528101906100329190610265565b33600073ffffffffffffffffffffffffffffffffffffffff168173ffffffffffffffffffffffffffffffffffffffff16036100a55760006040517f1e4fbdf700000000000000000000000000000000000000000000000000000000815260040161009c91906102b4565b60405180910390fd5b6100b48161013e60201b60201c565b5081600160006101000a81548173ffffffffffffffffffffffffffffffffffffffff021916908373ffffffffffffffffffffffffffffffffffffffff16021790555080600260006101000a81548173ffffffffffffffffffffffffffffffffffffffff021916908373ffffffffffffffffffffffffffffffffffffffff16021790555050506102cf565b60008060009054906101000a900473ffffffffffffffffffffffffffffffffffffffff169050816000806101000a81548173ffffffffffffffffffffffffffffffffffffffff021916908373ffffffffffffffffffffffffffffffffffffffff1602179055508173ffffffffffffffffffffffffffffffffffffffff168173ffffffffffffffffffffffffffffffffffffffff167f8be0079c531659141344cd1fd0a4f28419497f9722a3daafe3b4186f6b6457e060405160405180910390a35050565b600080fd5b600073ffffffffffffffffffffffffffffffffffffffff82169050919050565b600061023282610207565b9050919050565b61024281610227565b811461024d57600080fd5b50565b60008151905061025f81610239565b92915050565b6000806040838503121561027c5761027b610202565b5b600061028a85828601610250565b925050602061029b85828601610250565b9150509250929050565b6102ae81610227565b82525050565b60006020820190506102c960008301846102a5565b92915050565b61147d806102de6000396000f3fe6080604052600436106100a05760003560e01c80636935bda6116100645780636935bda61461018c5780636e04ff0d146101c9578063715018a6146102075780638da5cb5b1461021e578063efafb22e14610249578063f2fde38b14610272576100a1565b8063013cf08b146100a35780630a091afb146100e45780630d61b5191461010f578063400e3949146101385780634585e33b14610163576100a1565b5b005b3480156100af57600080fd5b506100ca60048036038101906100c59190610e75565b61029b565b6040516100db959493929190610ecc565b60405180910390f35b3480156100f057600080fd5b506100f96102de565b6040516101069190610f1f565b60405180910390f35b34801561011b57600080fd5b5061013660048036038101906101319190610e75565b6102f1565b005b34801561014457600080fd5b5061014d6104ed565b60405161015a9190610f3a565b60405180910390f35b34801561016f57600080fd5b5061018a60048036038101906101859190610fba565b6104f3565b005b34801561019857600080fd5b506101b360048036038101906101ae9190611007565b61050e565b6040516101c09190610f3a565b60405180910390f35b3480156101d557600080fd5b506101f060048036038101906101eb9190610fba565b6107ba565b6040516101fe9291906110d7565b60405180910390f35b34801561021357600080fd5b5061021c61084e565b005b34801561022a57600080fd5b50610233610862565b6040516102409190611148565b60405180910390f35b34801561025557600080fd5b50610270600480360381019061026b9190611188565b61088b565b005b34801561027e57600080fd5b50610299600480360381019061029491906111f4565b610c5c565b005b60036020528060005260406000206000915090508060000154908060010154908060020154908060030154908060040160009054906101000a900460ff16905085565b600560009054906101000a900460ff1681565b60006003600083815260200190815260200160002090506000816003015482600201541190508015610480576000600260009054906101000a900473ffffffffffffffffffffffffffffffffffffffff1673ffffffffffffffffffffffffffffffffffffffff166398d5fdca6040518163ffffffff1660e01b8152600401602060405180830381865afa15801561038c573d6000803e3d6000fd5b505050506040513d601f19601f820116820180604052508101906103b09190611236565b9050804710156103ec576040517f8740fb1d00000000000000000000000000000000000000000000000000000000815260040160405180910390fd5b600260009054906101000a900473ffffffffffffffffffffffffffffffffffffffff1673ffffffffffffffffffffffffffffffffffffffff1663efef39a18285600001546040518363ffffffff1660e01b815260040161044c9190610f3a565b6000604051808303818588803b15801561046557600080fd5b505af1158015610479573d6000803e3d6000fd5b5050505050505b60018260040160006101000a81548160ff0219169083151502179055506000600560006101000a81548160ff021916908315150217905550801515837f712354cc8b71a852b959baf9994ba8b6dba9bc7f8d2cc4ec7d1f4898b31bd7c160405160405180910390a3505050565b60045481565b61050a60016004546105059190611292565b6102f1565b5050565b600060018060009054906101000a900473ffffffffffffffffffffffffffffffffffffffff1673ffffffffffffffffffffffffffffffffffffffff166370a08231336040518263ffffffff1660e01b815260040161056c9190611148565b602060405180830381865afa158015610589573d6000803e3d6000fd5b505050506040513d601f19601f820116820180604052508101906105ad9190611236565b10156105e5576040517fe9a6b3ee00000000000000000000000000000000000000000000000000000000815260040160405180910390fd5b600560009054906101000a900460ff161561062c576040517fd360fdb700000000000000000000000000000000000000000000000000000000815260040160405180910390fd5b600260009054906101000a900473ffffffffffffffffffffffffffffffffffffffff1673ffffffffffffffffffffffffffffffffffffffff166396e494e8846040518263ffffffff1660e01b81526004016106879190610f3a565b602060405180830381865afa1580156106a4573d6000803e3d6000fd5b505050506040513d601f19601f820116820180604052508101906106c891906112f2565b6106fe576040517f4f3d4df500000000000000000000000000000000000000000000000000000000815260040160405180910390fd5b60006003600060045481526020019081526020016000209050838160000181905550824261072c919061131f565b81600101819055506004600081548092919061074790611353565b91905055506001600560006101000a81548160ff02191690831515021790555060016004546107769190611292565b7fc2c021f5d73c63c481d336fbbafec58f694fc45095f00b02d2deb8cca59afe0760405160405180910390a260016004546107b19190611292565b91505092915050565b600060606000600454036107e35760006040518060200160405280600081525091509150610847565b60006003600060016004546107f89190611292565b815260200190815260200160002090508060040160009054906101000a900460ff161580156108335750600560009054906101000a900460ff165b8015610843575080600101544210155b9250505b9250929050565b610856610ce2565b6108606000610d69565b565b60008060009054906101000a900473ffffffffffffffffffffffffffffffffffffffff16905090565b60018060009054906101000a900473ffffffffffffffffffffffffffffffffffffffff1673ffffffffffffffffffffffffffffffffffffffff166370a08231336040518263ffffffff1660e01b81526004016108e79190611148565b602060405180830381865afa158015610904573d6000803e3d6000fd5b505050506040513d601f19601f820116820180604052508101906109289190611236565b1015610960576040517fe9a6b3ee00000000000000000000000000000000000000000000000000000000815260040160405180910390fd5b816003600082815260200190815260200160002060040160009054906101000a900460ff16156109bc576040517f31b4a33800000000000000000000000000000000000000000000000000000000815260040160405180910390fd5b60006003600085815260200190815260200160002090508060050160003373ffffffffffffffffffffffffffffffffffffffff1673ffffffffffffffffffffffffffffffffffffffff16815260200190815260200160002060009054906101000a900460ff1615610a59576040517f1060bfb700000000000000000000000000000000000000000000000000000000815260040160405180910390fd5b6000600160009054906101000a900473ffffffffffffffffffffffffffffffffffffffff1673ffffffffffffffffffffffffffffffffffffffff166370a08231336040518263ffffffff1660e01b8152600401610ab69190611148565b602060405180830381865afa158015610ad3573d6000803e3d6000fd5b505050506040513d601f19601f82011682018060405250810190610af79190611236565b905060008111610b3c576040517f08c379a0000000000000000000000000000000000000000000000000000000008152600401610b33906113f8565b60405180910390fd5b60006001811115610b5057610b4f611418565b5b846001811115610b6357610b62611418565b5b03610b885780826002016000828254610b7c919061131f565b92505081905550610ba4565b80826003016000828254610b9c919061131f565b925050819055505b60018260050160003373ffffffffffffffffffffffffffffffffffffffff1673ffffffffffffffffffffffffffffffffffffffff16815260200190815260200160002060006101000a81548160ff021916908315150217905550836001811115610c1157610c10611418565b5b3373ffffffffffffffffffffffffffffffffffffffff16867f4dad34f5c0bfc89aa43660836c7a6aa46a7a6a5d437c6b9db430ac5d82c69b0760405160405180910390a45050505050565b610c64610ce2565b600073ffffffffffffffffffffffffffffffffffffffff168173ffffffffffffffffffffffffffffffffffffffff1603610cd65760006040517f1e4fbdf7000000000000000000000000000000000000000000000000000000008152600401610ccd9190611148565b60405180910390fd5b610cdf81610d69565b50565b610cea610e2d565b73ffffffffffffffffffffffffffffffffffffffff16610d08610862565b73ffffffffffffffffffffffffffffffffffffffff1614610d6757610d2b610e2d565b6040517f118cdaa7000000000000000000000000000000000000000000000000000000008152600401610d5e9190611148565b60405180910390fd5b565b60008060009054906101000a900473ffffffffffffffffffffffffffffffffffffffff169050816000806101000a81548173ffffffffffffffffffffffffffffffffffffffff021916908373ffffffffffffffffffffffffffffffffffffffff1602179055508173ffffffffffffffffffffffffffffffffffffffff168173ffffffffffffffffffffffffffffffffffffffff167f8be0079c531659141344cd1fd0a4f28419497f9722a3daafe3b4186f6b6457e060405160405180910390a35050565b600033905090565b600080fd5b600080fd5b6000819050919050565b610e5281610e3f565b8114610e5d57600080fd5b50565b600081359050610e6f81610e49565b92915050565b600060208284031215610e8b57610e8a610e35565b5b6000610e9984828501610e60565b91505092915050565b610eab81610e3f565b82525050565b60008115159050919050565b610ec681610eb1565b82525050565b600060a082019050610ee16000830188610ea2565b610eee6020830187610ea2565b610efb6040830186610ea2565b610f086060830185610ea2565b610f156080830184610ebd565b9695505050505050565b6000602082019050610f346000830184610ebd565b92915050565b6000602082019050610f4f6000830184610ea2565b92915050565b600080fd5b600080fd5b600080fd5b60008083601f840112610f7a57610f79610f55565b5b8235905067ffffffffffffffff811115610f9757610f96610f5a565b5b602083019150836001820283011115610fb357610fb2610f5f565b5b9250929050565b60008060208385031215610fd157610fd0610e35565b5b600083013567ffffffffffffffff811115610fef57610fee610e3a565b5b610ffb85828601610f64565b92509250509250929050565b6000806040838503121561101e5761101d610e35565b5b600061102c85828601610e60565b925050602061103d85828601610e60565b9150509250929050565b600081519050919050565b600082825260208201905092915050565b60005b83811015611081578082015181840152602081019050611066565b60008484015250505050565b6000601f19601f8301169050919050565b60006110a982611047565b6110b38185611052565b93506110c3818560208601611063565b6110cc8161108d565b840191505092915050565b60006040820190506110ec6000830185610ebd565b81810360208301526110fe818461109e565b90509392505050565b600073ffffffffffffffffffffffffffffffffffffffff82169050919050565b600061113282611107565b9050919050565b61114281611127565b82525050565b600060208201905061115d6000830184611139565b92915050565b6002811061117057600080fd5b50565b60008135905061118281611163565b92915050565b6000806040838503121561119f5761119e610e35565b5b60006111ad85828601610e60565b92505060206111be85828601611173565b9150509250929050565b6111d181611127565b81146111dc57600080fd5b50565b6000813590506111ee816111c8565b92915050565b60006020828403121561120a57611209610e35565b5b6000611218848285016111df565b91505092915050565b60008151905061123081610e49565b92915050565b60006020828403121561124c5761124b610e35565b5b600061125a84828501611221565b91505092915050565b7f4e487b7100000000000000000000000000000000000000000000000000000000600052601160045260246000fd5b600061129d82610e3f565b91506112a883610e3f565b92508282039050818111156112c0576112bf611263565b5b92915050565b6112cf81610eb1565b81146112da57600080fd5b50565b6000815190506112ec816112c6565b92915050565b60006020828403121561130857611307610e35565b5b6000611316848285016112dd565b91505092915050565b600061132a82610e3f565b915061133583610e3f565b925082820190508082111561134d5761134c611263565b5b92915050565b600061135e82610e3f565b91507fffffffffffffffffffffffffffffffffffffffffffffffffffffffffffffffff82036113905761138f611263565b5b600182019050919050565b600082825260208201905092915050565b7f4e6f7420656e6f7567682062616c616e63650000000000000000000000000000600082015250565b60006113e260128361139b565b91506113ed826113ac565b602082019050919050565b60006020820190508181036000830152611411816113d5565b9050919050565b7f4e487b7100000000000000000000000000000000000000000000000000000000600052602160045260246000fdfea2646970667358221220b3dfce860044d886ac9b4e59ef828a9a5c3b6f695f90c5459a52f6ccdbcc827364736f6c634300081c0033",
  "devdoc": {
    "errors": {
      "OwnableInvalidOwner(address)": [
        {
          "details": "The owner is not a valid owner account. (eg. `address(0)`)"
        }
      ],
      "OwnableUnauthorizedAccount(address)": [
        {
          "details": "The caller account is not authorized to perform an operation."
        }
      ]
    },
    "kind": "dev",
    "methods": {
      "owner()": {
        "details": "Returns the address of the current owner."
      },
      "renounceOwnership()": {
        "details": "Leaves the contract without owner. It will not be possible to call `onlyOwner` functions. Can only be called by the current owner. NOTE: Renouncing ownership will leave the contract without an owner, thereby disabling any functionality that is only available to the owner."
      },
      "transferOwnership(address)": {
        "details": "Transfers ownership of the contract to a new account (`newOwner`). Can only be called by the current owner."
      }
    },
    "version": 1
  },
  "userdoc": {
    "kind": "user",
    "methods": {},
    "version": 1
  },
  "storageLayout": {
    "storage": [
      {
        "astId": 76,
        "contract": "contracts/DAO.sol:DAO",
        "label": "_owner",
        "offset": 0,
        "slot": "0",
        "type": "t_address"
      },
      {
        "astId": 7085,
        "contract": "contracts/DAO.sol:DAO",
        "label": "cryptodevs",
        "offset": 0,
        "slot": "1",
        "type": "t_contract(ICryptoDevs)7042"
      },
      {
        "astId": 7088,
        "contract": "contracts/DAO.sol:DAO",
        "label": "nftMarket",
        "offset": 0,
        "slot": "2",
        "type": "t_contract(IFakeNFTMarketplace)7060"
      },
      {
        "astId": 7130,
        "contract": "contracts/DAO.sol:DAO",
        "label": "proposals",
        "offset": 0,
        "slot": "3",
        "type": "t_mapping(t_uint256,t_struct(Proposal)7125_storage)"
      },
      {
        "astId": 7132,
        "contract": "contracts/DAO.sol:DAO",
        "label": "numProposals",
        "offset": 0,
        "slot": "4",
        "type": "t_uint256"
      },
      {
        "astId": 7134,
        "contract": "contracts/DAO.sol:DAO",
        "label": "proposalRunning",
        "offset": 0,
        "slot": "5",
        "type": "t_bool"
      }
    ],
    "types": {
      "t_address": {
        "encoding": "inplace",
        "label": "address",
        "numberOfBytes": "20"
      },
      "t_bool": {
        "encoding": "inplace",
        "label": "bool",
        "numberOfBytes": "1"
      },
      "t_contract(ICryptoDevs)7042": {
        "encoding": "inplace",
        "label": "contract ICryptoDevs",
        "numberOfBytes": "20"
      },
      "t_contract(IFakeNFTMarketplace)7060": {
        "encoding": "inplace",
        "label": "contract IFakeNFTMarketplace",
        "numberOfBytes": "20"
      },
      "t_mapping(t_address,t_bool)": {
        "encoding": "mapping",
        "key": "t_address",
        "label": "mapping(address => bool)",
        "numberOfBytes": "32",
        "value": "t_bool"
      },
      "t_mapping(t_uint256,t_struct(Proposal)7125_storage)": {
        "encoding": "mapping",
        "key": "t_uint256",
        "label": "mapping(uint256 => struct DAO.Proposal)",
        "numberOfBytes": "32",
        "value": "t_struct(Proposal)7125_storage"
      },
      "t_struct(Proposal)7125_storage": {
        "encoding": "inplace",
        "label": "struct DAO.Proposal",
        "members": [
          {
            "astId": 7112,
            "contract": "contracts/DAO.sol:DAO",
            "label": "nftTokenId",
            "offset": 0,
            "slot": "0",
            "type": "t_uint256"
          },
          {
            "astId": 7114,
            "contract": "contracts/DAO.sol:DAO",
            "label": "deadline",
            "offset": 0,
            "slot": "1",
            "type": "t_uint256"
          },
          {
            "astId": 7116,
            "contract": "contracts/DAO.sol:DAO",
            "label": "yayVotes",
            "offset": 0,
            "slot": "2",
            "type": "t_uint256"
          },
          {
            "astId": 7118,
            "contract": "contracts/DAO.sol:DAO",
            "label": "nayVotes",
            "offset": 0,
            "slot": "3",
            "type": "t_uint256"
          },
          {
            "astId": 7120,
            "contract": "contracts/DAO.sol:DAO",
            "label": "executed",
            "offset": 0,
            "slot": "4",
            "type": "t_bool"
          },
          {
            "astId": 7124,
            "contract": "contracts/DAO.sol:DAO",
            "label": "voters",
            "offset": 0,
            "slot": "5",
            "type": "t_mapping(t_address,t_bool)"
          }
        ],
        "numberOfBytes": "192"
      },
      "t_uint256": {
        "encoding": "inplace",
        "label": "uint256",
        "numberOfBytes": "32"
      }
    }
  }
}